:020000040800F2
:10000000481700204D02000855020008570200085A
:10001000590200085B0200085D02000800000000B1
:100020000000000000000000000000005F02000867
:100030006102000800000000630200086502000879
:1000400067020008670200086702000867020008EC
:1000500067020008670200086702000867020008DC
:1000600067020008670200086702000867020008CC
:1000700067020008670200086702000867020008BC
:1000800067020008670200086702000867020008AC
:10009000670200086702000867020008670200089C
:1000A000670200086702000867020008670200088C
:1000B00067020008F52200086702000867020008CE
:1000C000670200086702000867020008670200086C
:1000D000670200088924000867020008D12400088C
:1000E000670200086702000867020008670200084C
:1000F000670200086702000867020008670200083C
:10010000670200086702000867020008670200082B
:10011000670200086702000867020008670200081B
:10012000670200086702000867020008670200080B
:1001300067020008670200086702000867020008FB
:1001400067020008670200086702000867020008EB
:1001500067020008670200086702000867020008DB
:1001600067020008670200086702000867020008CB
:1001700067020008670200086702000867020008BB
:10018000670200086702000800F002F800F04FF86C
:100190000AA090E8000C82448344AAF10107DA45E2
:1001A00001D100F044F8AFF2090EBAE80F0013F0E5
:1001B000010F18BFFB1A43F0010318472C3D000044
:1001C0004C3D0000103A24BF78C878C1FAD85207D5
:1001D00024BF30C830C144BF04680C6070470000C1
:1001E0000023002400250026103A28BF78C1FBD840
:1001F000520728BF30C148BF0B607047662903F023
:100200001B82642900F08E80732900F06084002036
:1002100070471FB503F00BFA00F070FC04000020DB
:10022000002103F077F9E0601FBD10B510BD00F0AC
:1002300065FD1146FFF7EDFF02F002FD00F083FDC2
:1002400003B4FFF7F2FF03BC02F073FA09488047DA
:1002500009480047FEE7FEE7FEE7FEE7FEE7FEE7A8
:10026000FEE7FEE7FEE7FEE704480549054A064BC0
:1002700070470000992200088901000848110020F9
:100280004817002048130020481300207047000042
:100290000FB4044910B503AA029800F01DFC10BC6D
:1002A0005DF814FBA40000200FB41CB5074B06AA90
:1002B0007B4469460090059800F0DFFB002069460A
:1002C00000F0EEFB1CBC5DF814FB0000ED07000025
:1002D00070B50C460546012A05D02878800600D561
:1002E000EA69002302E0012305E05B1C934202D28D
:1002F000E05C0028F9D1A869E618C01AA861286A4C
:10030000184428622846AFF3008004E0D5E90121B3
:1003100014F8010B9047B442F8D32846AFF300809D
:1003200070BD00002DE9F0410646002410687529D3
:10033000314616A510D0AFF30080002802DA404203
:1003400013A507E031688A0701D512A502E0490725
:1003500004D511A5012401E0AFF3008000210A2299
:1003600006F1240709E0B0FBF2FCB0FBF2F302FB5C
:100370001C00303078541846491C0028F3D123461D
:100380002A463046BDE8F04100F00CB900000000FC
:100390002D0000002B000000200000002DE9F04798
:1003A0004FF0000A89460446C0F820A02046E168C4
:1003B0008847002876D0252806D0D4E90121904727
:1003C000206A401C2062F1E7E1682046002588474A
:1003D000C4F81CA006460027C4F818A02A2E09D08D
:1003E000304602F09FF938B304EB8708303EC8F876
:1003F000186019E059F8041B204604EB870291614C
:10040000E1688847012F064618D1E069002820DA04
:1004100025F020051DE0D8F8180000EB800006EB61
:1004200040003038C8F818002046E1688847064682
:1004300002F078F90028EED1012F0AD02E2E08D133
:100440002046E16888477F1C0646022F45F02005BC
:10045000C4DBA069002803DA404245F00105A06131
:10046000E80701D025F01005B6B1A6F14100192822
:1004700002D8203645F400654A46314620462560BC
:100480004D46FFF7BBFE58B1012806D0ED1D25F003
:10049000070000F1080989E704E005F1040985E790
:1004A00030468AE7206ABDE8F08730B505460B463E
:1004B0002A4613F8014B12F8010B08B1A042F8D0FC
:1004C0001CB1002802D06D1CF1E7284630BD10B5E4
:1004D000431C02E010F8011B71B18107FAD14FF003
:1004E000013202C88C1A8C4314EAC211F9D0C01A26
:1004F0000A0603D0C01E10BDC01A10BD0A0401D0E8
:10050000801E10BD0902FCD0401E10BD4FF000023D
:100510000429C0F0128010F0030C00F01B80CCF115
:10052000040CBCF1020F18BF00F8012BA8BF20F883
:10053000022BA1EB0C0100F00DB85FEAC17C24BFD7
:1005400000F8012B00F8012B48BF00F8012B704781
:100550004FF0000200B5134694469646203922BF5C
:10056000A0E80C50A0E80C50B1F12001BFF4F7AFA7
:10057000090728BFA0E80C5048BF0CC05DF804EB89
:10058000890028BF40F8042B08BF704748BF20F8F7
:10059000022B11F0804F18BF00F8012B70477047F5
:1005A000704770472DE9F0470D469946924604463C
:1005B00000F124080168880604D5E06921F01001E3
:1005C000216000E00120A84201DD471B00E0002778
:1005D000A1697A1902EB0900081AA0612078C00607
:1005E00002D42046AFF30080002608E0D4E90121C0
:1005F0001AF806009047206A401C761C20624E457F
:10060000F4DB2078C0060AD52046AFF3008006E070
:10061000D4E9012130209047206A401C2062381E16
:10062000A7F10107F4DC07E0D4E9012118F805007F
:100630009047206A401C2062281EA5F10105F3DCCA
:100640002046AFF300802078000602D50220BDE8E6
:10065000F0870120FBE770472DE9FF4F0C461E464F
:100660004FF0FF378BB0D2E90001DDF860800A90CF
:100670008A46C1F30A5505B93D46002108464FF0A8
:100680000000BAF1000F00F4400005DA00EB800032
:100690004FF4400101EA50004FEA9059B9F1010FBF
:1006A00000DDB9460A9850EA4A000ED044F61050D0
:1006B000A5F2FF3545432F14B8F1000F1ED0754247
:1006C000291E1EDDC9F100021CE0B8F1010F4FF038
:1006D000000001D0302103E0F24305E02154401C2A
:1006E000B042FBDB30460022002121540B99C1F8B7
:1006F0000880C1E900200FB0BDE8F08FBD1B6D1C64
:10070000DEE74A4600DA694206A800F081FA06AB45
:1007100093E8070003AB83E8070050460A9900F00E
:1007200059FB8DE80700A0F500501F380090039892
:10073000002D09DD42F21F014A46084403A9039037
:10074000684600F0B8FD08E0A0F500504A461F38A2
:1007500003A90390684600F0C2FD8DE8070000047D
:10076000000C03D04FF0FF30410800E01046B8F114
:10077000000F03D00022009215461EE0751E05D41E
:1007800000F0C0F9303262556D1EF9D5B346012232
:10079000084302D000227F1C04E02078302801D1D9
:1007A00000227F1E002A099786D01DE0112D07DA4E
:1007B00000F0A8F9303262556D1C50EA0102F5D103
:1007C000084302D00098C8B10EE00021681E05E081
:1007D000235C625C63542254401E491C8142F7DB57
:1007E000AB46A81B401E0990002004F80B000B9894
:1007F000099AC0F80880C0E9002B7CE711264FF069
:10080000000859E72DE9F04F88460446D21D22F032
:10081000070191B0D1E90001CDE90A0101F06AFFB9
:1008200002460B98C00F01D02D2007E020688107F9
:1008300001D52B2002E0202101EAC000032A099003
:1008400001D0072A05DB03464146204600F0A0F907
:100850000BE12078800601D5E06900E00620B8F1C0
:10086000650F814606D0B8F1660F18D0B8F1670F52
:1008700070D131E00020B9F1110F009001DB11239C
:1008800001E009F101030AAA01A90CA8FFF7E4FE9F
:10089000DDE90C70002609F10105834647E00120DF
:1008A0004B4600904FF000470AAA01A90CA8FFF799
:1008B000D3FEDDE90DB00C995D46002610B909F1B3
:1008C00001000D18B9EB050003D4C0F1FF3609F1A2
:1008D0000105A5EB09002BE0B9F1010F01DA4FF09A
:1008E00001090020B9F1110F0090484601DD1123E4
:1008F00000E003460AAA01A90CA8FFF7ADFEDDE956
:100900000C704D4600268346207800070AD4AB457C
:1009100000DA5D4601A8012D04DD411911F8011C22
:10092000302907D04F4502DA17F1040F04DA01200D
:1009300082460FE06D1EEEE7002F02DCED1B3E4409
:1009400003E0781CA84200DD7D1CB81B00F1010A01
:100950004FF000472078000703D4AA4501DB4FF091
:10096000FF3A0021B7F1004F0DF143088DF8431015
:1009700024D002202B23002F01DA7F422D230A21CD
:10098000021EA0F1010000DC5FB197FBF1FC97FBB8
:10099000F1F201FB1C7C17460CF1300C08F801CD7C
:1009A000EEE7A8F1010003702188090501D5452172
:1009B00000E06521A0F1010800F8011C09980FA9C9
:1009C000A1EB0807FF1D00B10120411901EBEA70FE
:1009D000A1693844081A401EA0612078C00602D4DC
:1009E0002046AFF30080099828B1D4E9012190474F
:1009F000206A401C20622078C00622D52046AFF332
:100A000000801EE0002E04DBB34502DD01A8805DFE
:100A100000E03020D4E901219047206A401C206288
:100A2000761CAAF101005FEA000A0AD100F066F81C
:100A3000C0680168405CD4E901219047206A401CED
:100A40002062281EA5F10105DCDC07E0D4E90121C4
:100A500018F8010B9047206A401C2062381EA7F14D
:100A60000107F3DC2046AFF30080032011B043E61A
:100A700001694A1C02610878704700B58FB0CDE962
:100A800001310021059105497944CDE90310114652
:100A90006846FFF783FC0FB000BD0000E5FFFFFFD5
:100AA0000A6802F8010B0A60704710B5436913B178
:100AB000AFF3008001E0FFF70BFC012010BD1278BE
:100AC00000F124010A7000224A700122EDE711684A
:100AD0004FF0FF32E9E70000074B70B50D467B444D
:100AE000FFF7CBFF0446284600F000F910B14FF0A5
:100AF000FF3070BD204670BD7B1F0000004870476E
:100B00000811002030B5B0F10A024FEA900E71F1E1
:100B100000034EEA817EB0EB0E0061EB91014FEADB
:100B2000101E4EEA017E10EB0E0041EB11114FEA50
:100B3000102E4EEA016E10EB0E0041EB11214FEA30
:100B4000104E4EEA014E10EB0E0041EB11414018E1
:100B500041F100014FEAD00040EA41704FEAD10173
:100B600010EB80054FEA810444EA907444EB0104E1
:100B70006D1944EB0404521BA3414FF0000348BF1E
:100B80000A3200D530BD401C41F1000130BD0000EB
:100B90002DE9F0411F46044603260168072A01F4A7
:100BA000006004DB08B116A505E016A503E008B156
:100BB00015A500E015A521F010002060A069C01E59
:100BC000A0610FB1401EA0612046AFF300804FB17D
:100BD000D4E9012138469047206A401C2062C01C9D
:100BE000206206E0206AFAE7D4E9012115F8010B3A
:100BF0009047761EF8D22046AFF30080BDE8F08122
:100C00004E414E006E616E00494E4600696E6600B0
:100C10002DE9F047814616468AB0334878440DC81E
:100C20008DE80D0030487844801C03AC0DC884E882
:100C30000D0041F69B300844372190FBF1F290FB08
:100C4000F1F5A5F1800501FB12041B3C02D56442BD
:100C5000012000E00020DFF890A080460027FA4441
:100C6000AAF1BE0A0DE0E00709D03246684607EB5C
:100C700047010AEB810100F032FB8DE807006410A8
:100C80007F1C002CEFD1184F7F44AC3F18E0E807E1
:100C900014D007EB04100DF1180A90E80E008AE852
:100CA0000E00C068F04201D198190890324606A99A
:100CB00003A800F014FB03AB83E807006D10641C6D
:100CC000002DE4D132466946B8F1000F03A802D0E6
:100CD00000F0F1FA01E000F002FBC9E90001C9F8F7
:100CE00008200AB0BDE8F087B0320000007B00F0B9
:100CF0008000704700487047E81000207546FFF7F5
:100D0000F9FFAE4605006946534620F007008546C8
:100D100018B020B5FFF7A8FABDE820404FF0000654
:100D20004FF000074FF000084FF0000B21F00701D3
:100D3000AC46ACE8C009ACE8C009ACE8C009ACE816
:100D4000C0098D4670470446AFF300802046FFF788
:100D500077FA00004FF0013C50F8042B51F8043BA7
:100D60009A4221D1A2EB0C03934313EACC1317D17F
:100D700050F8042B51F8043B9A4215D1A2EB0C0316
:100D8000934313EACC130BD150F8042B51F8043BD6
:100D90009A4209D1A2EB0C03934313EACC13DBD0A4
:100DA0004FF00000704700BFD01A01BAB1FA81F1CC
:100DB00001F0180122FA01F0CB40C1F12001DBB2B1
:100DC000C0B2C01A2CFA01F3D11A914311EAC3112F
:100DD000E6D170475FEA400C08BF91F0000F4FEA80
:100DE0008C234FEAC12243EA51514FEA1C5018BFED
:100DF00000F5F0404FEA300018BF41F000415FEAD3
:100E00006C5C00F02980BCF1FF3F08BF40F08040DF
:100E10007047130C06BF12044FF0100C4FF0000C7B
:100E2000130E04BF12020CF1080C130F04BF1201C1
:100E30000CF1040C930F04BF92000CF1020CD30FC1
:100E400004BF52000CF1010C11464FF00002A0F15A
:100E50001F00A0EB0C00704711F0004F08BF704757
:100E600031F000413FF4D5AF0B0C06BF09044FF041
:100E7000100C4FF0000C0B0E04BF09020CF1080C13
:100E80000B0F04BF09010CF1040C8B0F04BF890088
:100E90000CF1020CCB0F04BF49000CF1010CCCF19A
:100EA0002003A0EB0C0022FA03F302FA0CF241EA51
:100EB000030100F10100704720F07F4C80EA03003D
:100EC00023F07F47ACEB070303F57C5300F00040B1
:100ED00003F1FF032DE980494FEA154B09B44FEAAE
:100EE000144325EA0B4E24EA03480FF2042606EBCE
:100EF000132749083E785FEA320203FB0667C7F50D
:100F0000000707FB06F64FEA54374FEAD64606F1CC
:100F1000020607FB066CCCF1005C4FEA1C472CEA8A
:100F2000074C07FB06F40CFB06F504EB15464FEAED
:100F3000961634BF00204FF000404FEAD13706FB31
:100F400007FC4FEA1C4C0CFB0BF7D21B03FB0CF706
:100F500061EB07010CFB0EF7B0EB074072EB174299
:100F60000CFB08F734BFA2EB0742B2EB074261EB80
:100F700017414FEA0C444FEA910706FB07FC4FEA82
:100F80001C4C0CFB0BF7B0EBC74072EB573203FB6A
:100F90000CF734BFA2EBC742B2EBC74261EB57314B
:100FA0000CFB0EF7B0EBC70072EB57720CFB08F7A7
:100FB00034BFA2EBC702B2EBC70261EB5771039FCC
:100FC0004FEA816141EA921104EBCC044FEAD13738
:100FD0004FEA826206FB07FC42EA90124FEA806009
:100FE0004FEA1C4C0CFB0BF7D21B03FB0CF761EB1D
:100FF00007010CFB0EF7B0EB074072EB17420CFB3E
:1010000008F734BFA2EB0742B2EB074261EB17418E
:101010004FEA8C554FEA910704EB9C2406FB07FC32
:101020004FEA1C4C0CFB0BF7B0EBC74072EB57328E
:1010300003FB0CF734BFA2EBC742B2EBC74261EB34
:1010400057310CFB0EF7B0EBC70072EB57720CFB7D
:1010500008F734BFA2EBC702B2EBC70261EB5771CE
:1010600015EB4C254FEA816141EA92114FEA826209
:101070004FEAD13742EA901206FB07FC44F1000424
:101080004FEA80604FEA1C4C0CFB0BF7D21B03FBB2
:101090000CF761EB07010CFB0EF7B0EB074072EBAE
:1010A00017420CFB08F734BFA2EB0742B2EB074232
:1010B00061EB174115EB1C154FEA813141EA924172
:1010C0004FEA823242EA90424FEA80304FEA0C7691
:1010D00044F1000448EA03434EEA0B484FF0000E87
:1010E000B2EB080C71EB030724BF624639464EEBA6
:1010F0000E0E4FF0000B0018524149414BEB0B0B09
:10110000B2EB080C71EB03077BF1000B24BF6246C6
:1011100039464EEB0E0E4FF0000B0018524149417C
:101120004BEB0B0BB2EB080C71EB03077BF1000BE5
:1011300024BF624639464EEB0E0E51EA020718BF35
:1011400046F0010616EB0E7655F1000254F100014F
:1011500003D5BDE88901BDE80088BDE88901BDE887
:101160000048B619524141EB0101A3F10103704758
:1011700080807F7E7D7C7B7A7978777676757473D4
:10118000727171706F6E6E6D6C6C6B6A6A69686893
:10119000676666656464636362616160605F5F5E29
:1011A0005E5D5D5C5C5B5B5A5A595958585757569F
:1011B0005655555554545353525252515150505004
:1011C0004F4F4F4E4E4D4D4D4C4C4C4B4B4B4A4A56
:1011D0004A4949494848484747474746464645459A
:1011E00045444444444343434342424242414141D3
:1011F000002B26D4770021D01CB54FEA370703B463
:101200004FF010004FF010014FF000000FBCBDE890
:1012100010400BF1010BBBF1010F08BF5FEA17078C
:1012200022BF12F1010211F101014FF0004143F11F
:10123000000300F0004043EA00007047F9D357086C
:10124000DAE746EA064613F1400F4FEA16461FDD7D
:1012500013F1200FDFBF16430A46002120335B4203
:10126000C8D0C3F1200746EA064602FA07F74FEA5C
:10127000164646EA0706C3F1200722FA03F201FAEE
:1012800007F721FA03F14FF0000342EA0702B1E742
:1012900046EA020646EA06464FEA164646EA0106CE
:1012A000BCBF46EA0646360C4FF000034FF0000282
:1012B0004FF000019EE72DE9C048934630B491E815
:1012C000380007C831EA400C48BF34EA430C03D564
:1012D000FFF7F2FDFFF78CFFF0BCBDE800882DE9B9
:1012E000C048934630B491E8380007C810F0804FEA
:1012F00008BF13F0804F03D100F005F8FFF778FF27
:10130000F0BCBDE8008820F07F4780EA030023F0AE
:101310007F4C07EB0C03A3F57C5300F00040A3F1D6
:10132000FE0392F0000F00F0B38095F0000F00F084
:1013300077802DE901494FEA11404FEA144621EA2E
:10134000004800FB06FC24EA064708FB06F607FBFC
:1013500008F800FB07F718EB06484CEB164C4FEA71
:10136000124B18EB07484FEA15464CEB174022EAA0
:101370000B4E0BFB06FC25EA06470EFB06F607FBA9
:101380000EFE0BFB07F71EEB064E4CEB164C4FF018
:1013900000061EEB074E4CEB174B18EB0B0840F109
:1013A000000018EB0E0B58EB000840F100008F1AFC
:1013B0004FF000013CBFC943661B14BFB5EB040CE2
:1013C00000213CBFC943F61B4FEA17444EEA8E0E7C
:1013D00027EA04454FEA1C4704FB07622CEA074C46
:1013E00005FB07F70CFB05F604FB0CFC16EB0746A8
:1013F00042EB174216EB0C4642EB1C421BEB060677
:1014000058EB0202414146EA9E0601D5BDE801893A
:10141000B619524141EB0101A3F10103BDE8018975
:101420004FEA14454FEA114724EA054621EA074CE2
:1014300005FB07F406FB07F70CFB06F105FB0CFCAC
:1014400011EB074144EB17444FEA124711EB0C41F3
:1014500044EB1C4422EA074C05FB07F206FB07F7A6
:101460000CFB06F605FB0CFC16EB074642EB17429D
:1014700016EB0C4642EB1C456A1854F1000148BFBC
:101480007047B619524141EB0101A3F101037047C6
:1014900095F0000F37D04FEA11424FEA144721EA86
:1014A000024624EA074C02FB07F106FB07F70CFB98
:1014B00006F402FB0CFC14EB074441EB17414FEA26
:1014C000154714EB0C4441EB1C4125EA074C02FB89
:1014D00007F506FB07F70CFB06F602FB0CFC16EB08
:1014E000074645EB174516EB0C4645EB1C42121917
:1014F00051F1000148BF7047B619524141EB01015B
:10150000A3F1010370474FEA14454FEA114724EA5B
:10151000054621EA074C05FB07F106FB07F70CFB24
:1015200006F24FF0000605FB0CFC12EB074241EB04
:10153000174112EB0C4251EB1C4148BF7047921807
:1015400041EB0101A3F1010370470029816802D03A
:1015500041F0010101E021F00101816070470000CC
:10156000084B10B5D3F8042307490A40D0E900140A
:101570002143D0E90240044321431143C3F804133B
:1015800010BD000000200140E030FCFFC06C80B2C4
:1015900070470246002012680A4200D001207047BE
:1015A00030B542680F4B0C791A400B6842EA0422AE
:1015B0001343436082680C4B4D791A40D1E90343D1
:1015C00023438C6844EA4504234313438360C26A7F
:1015D000097D22F47002491EC9B242EA0151C1627A
:1015E00030BD0000FFFEFFFCFDF7FFC070B5072611
:1015F00009290AD9C568A1F10A0404EB4404A640EC
:10160000B543A3401D43C56007E0056901EB4104F4
:10161000A640B543A3401D4305611F23072A09D2F5
:10162000446B521E02EB820293409C4391400C4358
:10163000446370BD0D2A09D2046BD21F02EB8202F3
:1016400093409C4391400C43046370BDC46A0D3ABF
:1016500002EB820293409C4391400C43C46270BDF4
:10166000816841F080418160704700002DE9F041C0
:1016700000251A4F2E464FF00108002409E00120F2
:10168000641C01F095F83C2C03DD6FF00300BDE80D
:10169000F081D7F824020028F1D0322001F088F838
:1016A000D7F824020024012812D1C5F1070108FA55
:1016B00001F0064308E00120641C01F079F81E2CBB
:1016C00002DD6FF00400E2E7D7F824020128F2D02F
:1016D0006D1C082DD1DB3046D9E7000000004342E5
:1016E0007CB500240546009401214020019400F0BF
:1016F00095FC8DF804504FF400708DF80540009073
:101700008DF806408DF807406946054800F0FEF860
:10171000012D03D103490120C1F8A4027CBD0000C2
:10172000001802400000434270B50546002400F056
:1017300017F8002811D1FFF799FF2855641C052CD4
:10174000F9DB28786978EA780844A97811440844D4
:101750002979884202D06FF0050070BD002070BD6D
:1017600070B500240120FFF7BBFF204D0020C5F815
:10177000A402142000F0F0FF0120C5F8A4021E20EE
:1017800001F016F80020FFF7ABFF4FF47A6608E08F
:101790000120641C01F00CF8B44202DD4FF0FF3070
:1017A00070BDD5F824020128F2D0002408E0012001
:1017B000641C00F0FDFF5A2C02DD6FF0010070BDCB
:1017C000D5F824020028F2D0002408E00120641C8F
:1017D00000F0EEFF5A2C02DD6FF0020070BDD5F86C
:1017E00024020128F2D0002070BD00000000434216
:1017F0001CB50121084600F011FC00208DF8040002
:101800008DF8050001218DF8060000918DF8071074
:101810006946024800F07AF81CBD00000000024052
:101820001CB50121102000F0F9FB1C2000900020C5
:101830008DF804008DF805008DF8060001208DF864
:1018400007006946014800F061F81CBD0010024025
:101850002DE9F043894680468BB00121042000F039
:10186000E9FB0121022000F0D9FB204F02220621D2
:10187000384600F087F84020022605908DF8186061
:1018800003208DF8190000248DF81A4001258DF8E9
:101890001B5005A9384600F039F8154FADF81C90DB
:1018A000CDF82080ADF81E40ADF8244007A9384699
:1018B00000F0ACFD6020ADF80000ADF80250ADF8CE
:1018C0000C6069463846029400F068FD08213846ED
:1018D00000F094FD0121384600F034FD0121384626
:1018E00000F03DFD0BB0BDE8F083000000040240B5
:1018F000000800404FF47A71884200D9084601463A
:10190000014800F081BD000000080040F0B5002251
:1019100001274FF0030C0B6807FA02F52B40AB428E
:101920002CD1066853000CFA03F4A64306600E7926
:10193000D0F800E09E4046EA0E0606600E79012EC1
:1019400001D0022E12D18668A64386604E79D0F867
:1019500008E09E4046EA0E0686604668AE43466052
:1019600045688E799640B6B235434560C568A54353
:10197000C560CC799C40C3681C43C460521C102ACB
:10198000C9D3F0BD4B07DB0E9A40C90810B500EB78
:101990008100016A0F249C40A1430162016A114346
:1019A000016210BD0246002012690A4200D00120E7
:1019B0007047418370470183704700002DE9F04173
:1019C000284D002404212846FFF7F3FF082000F0EB
:1019D000EFFE04212846FFF7EEFF142000F0E8FE9A
:1019E00004212846FFF7E5FF1F4E002030604FF42A
:1019F0007A7706E0641CA4B2052000F0D9FEBC4250
:101A000018D208212846FFF7CDFF0028F2D0DFF8D2
:101A100058800121A8F12408404600F0A0FC0024D1
:101A200040F6B8370DE0641CA4B20A2000F0C0FEF6
:101A3000BC4206D321460DA0FEF72AFC0020BDE8DB
:101A4000F08108212846FFF7ADFF0128EBD0306870
:101A5000002184B2404600F082FC3A20B4FBF0F052
:101A6000EDE7000000000240240C0040543A2564D9
:101A70000D0A00007CB50121202000F0CFFA0121E1
:101A8000102000F0CBFA4FF4C060009001208DF8D8
:101A9000040000208DF805008DF80600104C8DF82C
:101AA000070069462046FFF731FF4FF4C0410D4D56
:101AB000009169462846FFF729FF61152046FFF788
:101AC0007AFF21152046FFF776FF4FF40051284694
:101AD000FFF771FF4FF480412846FFF76CFF7CBD94
:101AE000001402400010024030B50F23C278017884
:101AF0000125FAB1144A126801F1E02102F4E06212
:101B0000C2F5E062C2F30722C2F10404D340427876
:101B1000A24084781C401443220181F800240078FC
:101B200000F01F018D404009800000F1E020C0F866
:101B3000005130BD01F01F0085404809800000F1D0
:101B4000E020C0F8805130BD0CED00E002490843B0
:101B500002490860704700000000FA050CED00E043
:101B600070B50025002105F1B00000F07FF90021DB
:101B7000084600F07BF90021102000F077F90024DE
:101B80000121002000F072F9641CE4B2802CF7D32C
:101B90006D1CEDB2082DE5D370BD10B500F08AFFC5
:101BA000C82000F0D9FD0021AE2000F05FF900212F
:101BB000084600F05BF90021102000F057F90021E1
:101BC000402000F053F90021B02000F04FF900212F
:101BD000812000F04BF90021FF2000F047F900219F
:101BE000A12000F043F90021A62000F03FF90021D8
:101BF000A82000F03BF900213F2000F037F9002138
:101C0000C82000F033F90021D32000F02FF9002183
:101C1000084600F02BF90021D52000F027F900211B
:101C2000802000F023F90021D82000F01FF90021C6
:101C3000052000F01BF90021D92000F017F9002140
:101C4000F12000F013F90021DA2000F00FF9002153
:101C5000122000F00BF90021DB2000F007F9002131
:101C6000302000F003F900218D2000F0FFF8002162
:101C7000142000F0FBF80021BDE81040AF2000F078
:101C8000F5B810B50A460446002102F1B00000F094
:101C9000EDF8102040EA1410002100F0E7F804F0FD
:101CA0000F00BDE81040002100F0E0B82DE9F04140
:101CB0000024154607460E467F2802D900278E1CB1
:101CC000F6B231463846FFF7DCFF0F4905EB051049
:101CD00001EB400528190121807800F0C7F8641C49
:101CE000E4B2102CF6D3761CF1B23846FFF7C9FFE8
:101CF000002428190121807C00F0B8F8641CE4B2AB
:101D0000102CF6D3BDE8F081100000202DE9F04141
:101D1000203A00240F468046D5B27F2803D9002000
:101D20008F1C8046FFB2102B394610D0FFF7A9FF59
:101D3000164905EB450001EB40050121285D00F047
:101D400095F8641CE4B2062CF7D3BDE8F081FFF7E8
:101D500098FF0F4E04EB05100121305C00F086F86F
:101D6000641CE4B2082CF5D37F1CF9B24046FFF79F
:101D700088FF002404EB051030440121007A00F0B4
:101D800075F8641CE4B2082CF4D3DEE73C36000896
:101D9000643800082DE9F05F0027DDF828A01D4613
:101DA00091468B4680463C464FEA5A0623E0281B64
:101DB000401EC1B20A2001F0B1F9B9FBF0F00A21CE
:101DC000B0FBF1F201FB120027B9691E8C4201DA67
:101DD00038B101273030C2B206FB0480C0B253468E
:101DE00004E006FB0480C0B2534620225946FFF7A8
:101DF0008DFF641CE4B2AC42D9D3BDE8F09F2DE95D
:101E0000F843054600200090884616461046FEF727
:101E10005EFBC7B2002425E0305D00F00BFF40B14F
:101E2000325D102341462846FFF770FF0835EDB2BA
:101E300017E03019024600F0F1FE90B1305D8DF8E8
:101E4000000050788DF80100684600F019FE002867
:101E500007DBC2B241462846FFF728FF1035EDB236
:101E6000641C641CBC42D7DBBDE8F883C0B209B176
:101E700000F029BC00F010BC10B501218CB0084660
:101E800000F0CCF80121080200F0E0F810200A90E0
:101E900003208DF82C0000248DF82F400AA9134848
:101EA000FFF734FD4FF48030CDE90640089406A8D2
:101EB0000994FFF755FB8DF8044000948DF8054018
:101EC0000294049401200A4C8DF8140069462046BF
:101ED000FFF766FB01231A4604212046FFF786FB25
:101EE00001212046FFF731FB0CB010BD000002407D
:101EF0000020014010B5074C2046FFF7B1FB02213E
:101F00002046FFF746FB0028F9D02046BDE81040E8
:101F1000FFF73CBB0020014010B500F021F8F0EEC7
:101F2000400A9FED0A1A9FED0A0A00EE810AB5EEFB
:101F3000C00AF1EE10FA01D29FED060A064910EE32
:101F4000100A884201DD9FED050A10BD7BD43143A4
:101F5000CD0CB1C2000000000000AF430000AF4351
:101F600010B5FFF7C7FF00EE100ADFED050AB8EE67
:101F7000400A20EE200ADFED030A20EE200A10BD01
:101F8000000080393333534030B501218BB0080451
:101F900000F05CF80121102000F040F802208DF8DC
:101FA000240020211B4C08918DF8250008A920460B
:101FB000FFF7ACFC032205212046FFF7E3FC53208A
:101FC000ADF8140044F61F600024134D0690ADF8E0
:101FD0001640ADF81C4005A9284600F017FA60200D
:101FE000ADF800000120ADF802000294ADF80C40FD
:101FF0006946284600F0D2F90821284600F0FEF98B
:102000000121284600F09EF90121284600F0A7F999
:102010000BB030BD0010024000400140044A0029CE
:10202000116801D0014300E0814311607047000056
:1020300030380240044A0029116801D0014300E011
:10204000814311607047000040380240044A002973
:10205000116801D0014300E0814311607047000026
:102060004438024070B5204B1968204C11F00C0127
:1020700004D06610042903D0082903D004601BE0B3
:10208000066019E0184A121F1168C1F380551168E3
:1020900001F03F0115B1B6FBF1F101E0B4FBF1F144
:1020A00014681268C4F388146143C2F30142521CDD
:1020B0005200B1FBF2F1016019680F2202EA11111E
:1020C0000B4A545C0168E14041601C68072505EA41
:1020D0009424145D21FA04F484601B6805EA5333E8
:1020E000D25CD140C16070BD083802400024F400C9
:1020F000BC00002070B5154C4FF47A71204600F0FA
:1021000083F901F013F8012000F044FB40F2DC55A4
:102110002946204600F078F901F008F8012000F087
:1021200039FB4FF4FA61204600F06EF900F0FEFF33
:10213000012000F02FFB2946204600F065F900F051
:10214000F5FFBDE87040012000F024BB00400140D5
:102150000CB50022274900920192086840F48030B3
:1021600008604FF4A043086800F400300190009824
:10217000401C0090019810B900989842F3D108686B
:10218000800334D5012001901A484030026842F0A3
:10219000805202601848026842F4404202601548CA
:1021A000083002680260026842F40042026002687D
:1021B00042F4A0520260031F104A1A600A6842F0FB
:1021C00080720A600A689201FCD50D4940F20572DE
:1021D0000A60016821F003010160016841F0020119
:1021E00001600168C1F381010229FAD10CBD01929D
:1021F0000CBD000000380240007000400854400749
:10220000003C024070B5012186B00846FFF706FF8A
:1022100001210820FFF70EFF01248DF8044000255E
:1022200004208DF80650144E00908DF807408DF86C
:10223000054069463046FFF769FB082000908DF89D
:1022400004508DF8074069463046FFF75FFB532086
:10225000ADF808004CF24F30084C0390ADF80A502E
:10226000ADF8105002A9204600F0D0F80021204619
:1022700000F075F806B070BD00000240000C004090
:102280004FF0E0210428086903D020F00400086121
:10229000704740F00400FAE7124810B5016841F4B5
:1022A000700101601048016841F0010101600E4AAF
:1022B00000210832116002680C4B1A400260031DB5
:1022C0000B4A1A60026822F48022026006480C3031
:1022D0000160FFF73DFF03494FF00060803908605F
:1022E00010BD000088ED00E000380240FFFFF6FE60
:1022F0001030002410B50F4C0121204600F039F8B1
:10230000012816D10C4A0D4811680368994201D082
:10231000006807E039B10068814204D10849012012
:102320000860002010602046BDE81040012100F048
:1023300013B810BD00040040B4000020A800002025
:10234000AC0000200029018802D041F0800101E0AA
:1023500021F0800101807047C94301827047002944
:10236000018802D041F0010101E021F0010101806A
:10237000704702460020138A92890B4202EA01024A
:1023800002D0002A00D001207047002A828901D0A3
:102390000A4300E08A4382817047000030B5028C16
:1023A00022F001020284028C8388048B22F0020254
:1023B00024F073050C882C438D8915434A882A43E1
:1023C0000C4DA84202D00C4DA8420DD122F00805B8
:1023D000CA8923F440732A4322F004058A882A43D9
:1023E0000D8A1D434B8A2B43838004838968416394
:1023F000028430BD0000014000040140028B22F045
:1024000008020A43028370474163704730B502886F
:10241000164C174DA0420DD0A8420BD0B0F1804F02
:1024200008D0144B984205D0134B984202D0134B5E
:10243000984203D122F070034A881A43104B984205
:1024400006D0104B984203D022F440730A891A43F5
:1024500002804A68C2620A880285A04201D0A8426E
:1024600001D1897A01860121818230BD00000140BD
:10247000000401400004004000080040000C00403F
:10248000001000400014004070B50F4C40F225557C
:102490002946204600F06BF8012813D1204600F0B1
:1024A000F3F80A4EC1B2304600F0F2F8802130460F
:1024B00000F056F80028F9D029462046BDE87040C3
:1024C00000F03EB870BD0000001001400048004020
:1024D00070B5164C40F225552946204600F047F8C5
:1024E000012821D1204600F0CFF8114AC1B210686E
:1024F000104B0344401C106019701068B0F5007F49
:1025000002D30D4A012010600C4E304600F0C0F896
:102510008021304600F024F80028F9D029462046D2
:10252000BDE8704000F00CB870BD000000480040ED
:10253000A8000020DC000020AC00002000100140BA
:102540000A0A01219140C94301807047002981890D
:1025500002D041F4005101E021F400518181704723
:102560000246002012880A4200D00120704770B550
:1025700001F01F0501260024C1F3421306FA05F2FB
:10258000012B0FD0022B0FD0838A4FEA1121008834
:10259000134206FA01F600EA060001D000B1012458
:1025A000204670BD8389F0E7038AEEE710B5C1F3DA
:1025B000421301F01F040121A140012B07D0022B7F
:1025C00007D01430002A026805D00A4304E00C301A
:1025D000F8E71030F6E78A43026010BD7FB5044685
:1025E000008A0D46C98820F4405001432182A08909
:1025F00041F20C618843A9882A8911436A89024300
:102600001143A181A08A20F44071A8890843A082C7
:102610006846FFF727FD1A48844202D019488442D1
:1026200001D1039800E00298A189090400EBC001E0
:1026300001EB0010296801D5490000E08900B0FBDA
:10264000F1F06422B0FBF2F109010B096FF01805FB
:102650006B4300EB8300A3891D044FF0320306D5C2
:1026600003EBC000B0FBF2F000F0070005E003EB65
:102670000010B0FBF2F000F00F00084320817FBD96
:1026800000100140001401408088C0F3080070472A
:10269000C1F308018180704710B5044600F08EFA3E
:1026A000782000F061FA00F029FA002000F05CFACE
:1026B00000F024FA204600F057FA00F01FFABDE8B7
:1026C000104000F093BA10B5044600F077FA782075
:1026D00000F04AFA00F012FA402000F045FA00F04B
:1026E0000DFA204600F040FA00F008FABDE810406C
:1026F00000F07CBA03B401984100009850EAC12070
:1027000018BF04204A0D18BF40F0010040F2FF72CC
:10271000B2EB515F08BF40F00200012808BF05205E
:1027200002B0704730380A2801D2012070470020DB
:102730007047704710B504466FF00400FFF7A0FD26
:102740000449E0084FF47A72086010FB02F0486018
:1027500010BD0000080000204FF0E0210A6922F0BF
:1027600001020A610A4A52684243521E4A6100202D
:102770008861086940F0010008610869C20701D05A
:10278000C003FAD5086920F0010008617047000015
:102790000800002010B503464FF4FA7405E0204607
:1027A000FFF7DAFF2046FFF7D7FF5B1EF7D210BD19
:1027B0004FF0E0210A6922F001020A610A4A126818
:1027C0004243521E4A6100208861086940F00100BE
:1027D00008610869C20701D0C003FAD5086920F072
:1027E00001000861704700000800002030B591B07A
:1027F0000C46054640216846FDF7AAFE13A000F0EE
:1028000005F94FF4FA6116A000F0C0F818B14FF0C6
:10281000FF3011B030BD23462A4612A16846FDF7AD
:1028200043FD684600F0F2F842F2107114A000F087
:10283000ADF840B141F2883109A000F0A7F810B11D
:102840006FF00100E5E70020E3E7000041542B436F
:10285000574D4F44455F4355523D310D0A0000002E
:102860004F4B000041542B43574A41505F43555250
:102870003D222573222C222573220D0A0000000020
:102880005749464920434F4E4E4543544544000066
:1028900010B506A000F0BAF841F2883106A000F0A9
:1028A00075F8002801D04FF0FF3010BD41542B4384
:1028B000575141500D0A00004F4B000010B506A0C3
:1028C00000F0A4F841F2883107A000F05FF800287A
:1028D00001D04FF0FF3010BD41542B434950434CC1
:1028E0004F53450D0A0000004F4B000010B510A0DB
:1028F00000F08CF841F28834214611A000F046F82F
:1029000010B14FF0FF3010BD4FF4FA60FFF724FF15
:102910000CA000F07BF8214609A000F037F810B1B8
:102920006FF0010010BD0B4901208860002010BD30
:1029300041542B4349504D4F44453D310D0A000051
:102940004F4B000041542B43495053454E440D0A10
:1029500000000000A800002010B54FF47A70FFF7C7
:10296000FBFE08A000F052F84FF4FA60FFF7F4FE07
:10297000054900208860BDE8104041F2883101A07F
:1029800000F004B82B2B2B00A800002070B50C46DB
:10299000054603E00120FFF7DFFE641E29460848D4
:1029A000FDF783FD08B9002CF4D1054905A0FDF71A
:1029B0006FFC0CB1002070BD4FF0FF3070BD000007
:1029C000DC0000205B66696E64207374725D2573A1
:1029D0000000000010B54FF4E13000F039FDBDE813
:1029E000104000F0B7BC000010B505A000F00EF8D4
:1029F000BDE810404FF47A7103A0FFF7C7BF000095
:102A000041540D0A000000004F4B000010B5044671
:102A10004FF480510548FDF779FD054A002111600A
:102A20002046BDE8104000F061BD0000DC00002041
:102A3000A800002010B50749002204464A600A6039
:102A40004FF480510448FDF761FD2046BDE8104079
:102A500000F04CBDA8000020DC00002070B5074D40
:102A6000044681B22846FFF713FE80212846FFF76F
:102A700077FD0028F9D0204670BD0000001001400D
:102A800030B504460A4A2378002000EB001112F802
:102A900011509D4205D102EB410165784978A94268
:102AA00004D0401C0428F0D34FF0FF3030BD0000AC
:102AB000100000201CB50020009001900121022090
:102AC000FFF7ACFA4FF44070012400908DF80440F9
:102AD00003208DF805008DF806408DF80740694603
:102AE0000448FEF713FF0448C0F8A042C0F8A4420F
:102AF0001CBD0000000402400080404270B500256B
:102B0000284600F019F80B4C0026C4F8A0620520F6
:102B100004F50974FFF74CFE0120E0670520FFF77C
:102B200047FE2068A4F5097400B10125C4F8A0622D
:102B3000284670BD008040421CB5002101918DF8EF
:102B4000040003208DF8050001204FF400718DF87A
:102B5000060000918DF8070069460248FEF7D6FE90
:102B60001CBD0000000402402DE9F0418046002415
:102B70000120FFF7E1FF104E0027C6F8A0720125E3
:102B8000C4F1070105FA01F010EA080F02D0C6F8F7
:102B9000A45201E0C6F8A4720520FFF709FEC6F8AA
:102BA000A0520520FFF704FEC6F8A072641C64B2B0
:102BB000082CE5DBBDE8F0810080404270B50120C3
:102BC000FFF7BAFF084C0120C4F8A002C4F8A40221
:102BD000052004F52874FFF7EBFD0025656005204E
:102BE000FFF7E6FD256070BD0080404270B5012012
:102BF000FFF7A2FF084C0020C4F8A002C4F8A4020A
:102C0000052004F52874FFF7D3FD01252560052074
:102C1000FFF7CEFD656070BD008040420178A139AC
:102C2000562905D84078A1385D2801D80120704781
:102C3000002070477F2801D801207047002070478E
:102C40008AB0A820FFF776FDFEF714FF4FF4E130BD
:102C500000F0B0FBFFF72EFFFEF79FFFFEF780FFAF
:102C600073A0FDF715FBFFF7CDFAFEF7C1FDFEF7E8
:102C7000D7FDFFF789F9532140F2E730FEF7E8FD71
:102C8000FFF7FAF8FFF7A6FE6420FFF765FD6BA0DB
:102C9000FDF7FEFA4FF44070FEF758FF00252021A3
:102CA00002A8FDF755FCDFF8C091704EDFF8C08137
:102CB000012701214C464846FEF774FEB0B90F20AB
:102CC000FFF74AFD01212046FEF76CFE70B969A1AD
:102CD0006BA000F0B5F980B16AA0FDF7D9FA00F059
:102CE0007FF900282BD06CA0FDF7D2FA04213046E2
:102CF000FEF758FE002845D04CE070A0FDF7C8FA5A
:102D00004FF4005421463046FEF753FE6420FFF78F
:102D100023FD21463046FEF74EFE6420FFF71CFDE2
:102D200021463046FEF745FE6420FFF715FD21469B
:102D30003046FEF740FE6420FFF70EFDCFE764A0AB
:102D4000FDF7A6FA4FF4804421463046FEF731FEE7
:102D50006420FFF701FD21463046FEF72CFE64207B
:102D6000FFF7FAFC21463046FEF723FE6420FFF70A
:102D7000F3FC21463046FEF71EFE6420FFF7ECFC14
:102D80000125B3E70F20FFF7E7FC04213046FEF7EB
:102D900009FE80B1012D8CD15648FEF7C5FC01001B
:102DA00025D055A0FDF774FAFFF7A4F93221584851
:102DB000FFF72AFB7DE700F03BF960B155A0FDF776
:102DC00067FAFFF765FD60B15CA0FDF761FAFEF7F9
:102DD000C7FE00256DE762A0FDF75AFAC8F8A87291
:102DE000EFE769A0FDF754FAC8F8A472EFE7414C89
:102DF000E0780090A378627821786CA0FDF748FA1B
:102E0000E178A078CDE90001637822786EA102A86C
:102E1000FDF74AFA02A8FFF70DFEA078192802D3A1
:102E20004FF4FA7000E00020FEF764FDBCE70000FC
:102E3000543334353433360D0A0000005468697356
:102E4000206973206573703832363620636F6E6E7A
:102E500065637420617020627920546561636865E0
:102E6000722E57656E0D0A000000024000100240ED
:102E700000804242313131313131313100000000C6
:102E8000777A0000C1ACBDD357494649CAA7B0DC28
:102E9000A3A10D0A000000005B6572726F725D20D5
:102EA0006E657420636F6E6E6563742073657276F1
:102EB0006572206661696C0D0A000000C1ACBDD36B
:102EC00057494649B3C9B9A6A3A10D0A000000009D
:102ED0005B4F4B5D206E657420636F6E6E6563742F
:102EE0002073657276657220737563636573730D05
:102EF0000A00000000000020B6C1C8A1CEC2CAAAC4
:102F0000B6C8CAFDBEDDCAA7B0DC3A202564000001
:102F1000004001405B6572726F725D206E657420C7
:102F2000646973636F6E6E65637420736572766532
:102F300072206661696C0D0A000000005B657272A8
:102F40006F725D206E657420646973636F6E6E6569
:102F50006374206170206661696C0D0A00000000D6
:102F60005B4F4B5D206E657420646973636F6E6E9A
:102F7000656374207365727665722073756363652B
:102F800073730D0A000000005B4F4B5D206E65748B
:102F900020646973636F6E6E656374206170207363
:102FA0007563636573730D0A00000000CAAAB6C892
:102FB0003A25642E25642020CEC2B6C83A25642E58
:102FC00025640D0A0000000068756D3A25642E2501
:102FD00064202C74656D3A25642E25640000000081
:102FE00010B507A0FFF726FD41F288310FA0FFF7CB
:102FF000CDFC002803D1BDE81040FFF777BC10BD21
:1030000041542B43495053544152543D2254435050
:10301000222C223139322E3136382E3133372E35AB
:1030200034222C393939390D0A0000004F4B000089
:1030300010B5FFF791FCBDE81040FFF73FBC000062
:1030400070B50D460446FFF787FCFFF7CDFC28B1AD
:103050000CA0FDF71DF94FF0FF3070BD12A0FDF779
:1030600017F929462046FFF7C1FB214628B117A0D2
:10307000FDF70EF96FF0020070BD1EA0FDF708F914
:10308000002070BD5B6572726F725D206573703871
:103090003236362073656C66207465737420206642
:1030A00061696C0D0A0000005B4F4B5D2065737019
:1030B000383236362073656C6620746573742073FD
:1030C0007563636573730D0A000000005B657272BF
:1030D0006F725D206573703832363620636F6E6EA6
:1030E000656374206170202573206661696C0D0A28
:1030F000000000005B4F4B5D206573703832363640
:1031000020636F6E6E656374206170202573207379
:103110007563636573730D0A0000000003460120A8
:1031200000E05843491EC9B2FBD2704770B52DED7F
:10313000028B8AB0202101A8FDF70AFAFEF710FDE4
:10314000FEF73CFC0546024661A101A8FDF7ACF87C
:1031500001A8FFF76FFC624E0A2D1CD274152146A0
:103160003046FEF726FC6420FFF7F6FA214630468B
:10317000FEF721FC6420FFF7EFFA21463046FEF708
:1031800018FC6420FFF7E8FA21463046FEF713FCEE
:103190006420FFF7E1FA002152A20846FEF72FFE55
:1031A000102403232A46002148200094FEF7F2FD54
:1031B00029464FA0FDF76CF850A202210020FEF72F
:1031C0001EFE504D009402232A7819461E20FEF759
:1031D000E1FD10232E2202213220FEF797FD0094FC
:1031E00002236A7819463720FEF7D4FD46A204214F
:1031F0000020FEF704FE0094AA78022304211E207A
:10320000FEF7C8FD10232E2204213220FEF77EFD9A
:103210000094EA78022304213720FEF7BBFDFEF775
:103220007BFEB0EE408A18EE100A00F08FF941ECF8
:10323000100B37A153EC102B01A8FDF735F801A8AE
:10324000FFF7F8FB18EE100A3749884204DA18EE47
:10325000100A364988421DDC4FF480652946304605
:10326000FEF7A7FB6420FFF777FA29463046FEF702
:10327000A2FB6420FFF770FA29463046FEF799FB5F
:103280006420FFF769FA29463046FEF794FB642074
:10329000FFF762FA18EE100A00F058F941EC100B33
:1032A00023A053EC102BFCF7F3FF28A206210020EB
:1032B000FEF7A5FDBCEEC80A0323062110EE102A76
:1032C00032200094FEF766FD0AB0BDEC028B70BDA3
:1032D00064697374616E63653A256420636D0000F0
:1032E0000014024064697374616E63653A00000003
:1032F0006469733A25640D0A0000000068756D3A30
:10330000000000000000002074656D3A000000001D
:10331000746972655F70726573737572653A252E94
:103320003166206B506100000000C8420000484236
:10333000546972652050726573737572653A202501
:103340002E3166206B50610D0A00000074697265B1
:103350003A00000070B501210220FEF76BFE124812
:1033600042F20F710024416042F2CF0101800481DA
:103370000E4D448001462846FFF748F801221146C9
:103380002846FFF702F80A491D20012208704C70F8
:103390008A70CA700846FEF7A7FB2846BDE8704051
:1033A0000121FEF7DCBF0000DC100020000400401B
:1033B000B800002070B5054601210846FEF72EFE34
:1033C00001211020FEF742FE1D494FF4C060002489
:1033D000086002200871032048711A4E8C71CC716C
:1033E0003046FEF793FA072209213046FEF7CAFA63
:1033F00007220A213046FEF7C5FA13490C200D605A
:103400008C80CC800C818C81104D48812846FFF740
:10341000E5F8012240F225512846FFF7C7F8084990
:103420002520091F08704C708C700120C870084658
:10343000FEF75AFB2846BDE870400121FFF786B829
:103440009C00002000000240CC0000200010014041
:1034500070B5054601210220FEF7E0FD0121880438
:10346000FEF7E8FD1D494FF440600024086002208B
:103470000871032048711A4E8C71CC713046FEF7EA
:1034800045FA07220A213046FEF77CFA07220B2173
:103490003046FEF777FA13490C200D608C80CC8003
:1034A0000C818C81104D48812846FFF797F8012246
:1034B00040F225512846FFF779F808492720091FCF
:1034C00008704C708C700120C8700846FEF70CFB29
:1034D0002846BDE870400121FFF738B89C00002065
:1034E00000040240CC0000200048004070B50446B3
:1034F000074D09E02846FFF7CBF8641C80212846D9
:10350000FFF72EF80028F9D021780029F2D170BDFC
:103510000048004010B500290AD00878002807D0DC
:1035200005487844FDF716FC002801D0002010BDA6
:103530000248784410BD0000E6090000DE090000E2
:103540000808A0F500114FEA3101704743004FEA27
:10355000D30C4FEA3C0C43401FBF40070CF16051B5
:1035600013F0FE4F70471CF0006F03D100200CF0E9
:10357000004170470CF0004343EA507010B540EA38
:10358000CC0000F00EF800BF000000924FEA0001EE
:10359000FFF7D6BF4FF000414FF00000A1F500212A
:1035A00070470EF1020E2EF0030E5EF8044B24421B
:1035B00004D44FEA4102B2F17F4F11D84FEA4003E1
:1035C000B3F17F4F0CD80ED14FEAD07CB2F17F4FD0
:1035D0000CEB4C0C0CF1020C08BF4CEBD17C04E062
:1035E0004FF0080C01E04FEAD17C0CEB4C0324FABD
:1035F00003F404F00704B4F1040C06D20EEB840CBF
:10360000BDE810404CF0010C6047DFE80CF0070803
:1036100002024FF00040A0F5800010BD08464200B5
:1036200018BFD2F1807288BF00F0004010BD4FF08B
:103630004070E1EE100A7047FDF7E4B800000000AA
:1036400000000000002F0000000007000700001429
:103650007F147F1400242A7F2A1200626408132337
:1036600000364955225000000503000000001C22CE
:103670004100000041221C000014083E081400080C
:10368000083E0808000000A06000000808080808BC
:10369000000060600000002010080402003E514954
:1036A000453E0000427F40000042615149460021F2
:1036B00041454B31001814127F100027454545390C
:1036C000003C4A4949300001710905030036494967
:1036D000493600064949291E000036360000000020
:1036E000563600000008142241000014141414146B
:1036F0000000412214080002015109060032495914
:10370000513E007C1211127C007F49494936003E2F
:1037100041414122007F4141221C007F49494941EA
:10372000007F09090901003E4149497A007F0808E4
:10373000087F0000417F4100002040413F01007FA1
:1037400008142241007F40404040007F020C027F6D
:10375000007F0408107F003E4141413E007F09097F
:103760000906003E4151215E007F091929460046A5
:10377000494949310001017F0101003F4040403F7C
:10378000001F2040201F003F4038403F00631408C6
:1037900014630007087008070061514945430000A1
:1037A0007F41410000552A552A55000041417F00C4
:1037B00000040201020400404040404000000102B9
:1037C0000400002054545478007F484444380038A2
:1037D0004444442000384444487F0038545454182A
:1037E00000087E0901020018A4A4A47C007F08043C
:1037F00004780000447D4000004080847D00007F0C
:10380000102844000000417F4000007C0418047828
:10381000007C0804047800384444443800FC242424
:1038200024180018242418FC007C0804040800480C
:103830005454542000043F444020003C4040207C2D
:10384000001C2040201C003C4030403C004428101C
:103850002844001CA0A0A07C004464544C441414D0
:103860001414141400000000000000000000000008
:1038700000000000000000F800000000000000331D
:103880003000000000100C06100C060000000000C4
:103890000000000040C07840C0784000043F0404AD
:1038A0003F040400007088FC08300000001820FF6E
:1038B000211E0000F008F000E018000000211C03A9
:1038C0001E211E0000F00888700000001E21232425
:1038D0001927211010160E00000000000000000043
:1038E00000000000000000E01804020000000007D3
:1038F0001820400000020418E000000000402018DA
:1039000007000000404080F0804040000202010FAC
:1039100001020200000000F0000000000101011F90
:1039200001010100000000000000000080B07000F4
:103930000000000000000000000000000001010184
:103940000101010100000000000000000030300013
:1039500000000000000000008060180400601806ED
:103960000100000000E010080810E000000F102027
:1039700020100F00001010F8000000000020203F71
:1039800020200000007008080888700000302824FB
:10399000222130000030088888483000001820209C
:1039A00020110E000000C02010F8000000070424C1
:1039B000243F240000F80888880808000019212006
:1039C00020110E0000E0108888180000000F112060
:1039D00020110E0000380808C83808000000003F19
:1039E000000000000070880808887000001C222178
:1039F00021221C0000E010080810E0000000312225
:103A000022110F00000000C0C000000000000030C4
:103A10003000000000000080000000000000806016
:103A20000000000000008040201008000001020497
:103A3000081020004040404040404000040404047E
:103A4000040404000008102040800000002010083A
:103A500004020100007048080808F000000000306F
:103A600036010000C030C828E810E00007182724FD
:103A700023140B000000C038E0000000203C2302AB
:103A80000227382008F8888888700000203F20200E
:103A900020110E00C0300808080838000718202040
:103AA0002010080008F808080810E000203F202037
:103AB00020100F0008F88888E8081000203F202018
:103AC0002320180008F88888E8081000203F20000C
:103AD00003000000C0300808083800000718202044
:103AE000221E020008F808000008F808203F210103
:103AF00001213F20000808F8080800000020203FAE
:103B00002020000000000808F8080800C08080801D
:103B10007F00000008F888C028180800203F200116
:103B20002638200008F8080000000000203F202070
:103B30002020300008F8F800F8F80800203F003F87
:103B4000003F200008F830C00008F808203F20009F
:103B500007183F00E01008080810E0000F102020B0
:103B600020100F0008F808080808F000203F210185
:103B700001010000E01008080810E0000F182424DC
:103B800038504F0008F8888888887000203F20004F
:103B9000030C302000708808080838000038202105
:103BA00021221C00180808F8080818000000203F0F
:103BB0002000000008F808000008F808001F202076
:103BC00020201F000878880000C838080000073847
:103BD0000E010000F80800F80008F800033C070098
:103BE000073C0300081868808068180820302C0300
:103BF000032C30200838C800C83808000000203FD7
:103C00002000000010080808C838080020382621C5
:103C100020201800000000FE020202000000007FC9
:103C200040404000000C30C00000000000000001D7
:103C30000638C00000020202FE00000000404040C2
:103C40007F000000000004020202040000000000E7
:103C50000000000000000000000000008080808064
:103C6000808080800002020400000000000000004C
:103C700000000000000080808080000000192422E5
:103C800022223F2008F8008080000000003F112021
:103C900020110E000000008080800000000E112026
:103CA00020201100000000808088F800000E112004
:103CB00020103F200000808080800000001F222212
:103CC00022221300008080F0888888180020203F7E
:103CD000202000000000808080808000006B949491
:103CE0009493600008F8008080800000203F21004D
:103CF00000203F2000809898000000000020203F16
:103D000020200000000000809898000000C0808003
:103D1000807F000008F8000080808000203F24029F
:103D20002D302000000808F8000000000020203F8F
:103D3000202000008080808080808000203F200044
:103D40003F20003F8080008080800000203F2100D5
:103D500000203F200000808080800000001F202085
:103D600020201F00808000808000000080FFA120B4
:103D700020110E000000008080808000000E1120C5
:103D800020A0FF80808080008080800020203F2154
:103D90002000010000008080808080000033242407
:103DA00024241900008080E0808000000000001FB3
:103DB000202000008080000000808000001F202064
:103DC00020103F20808080000080808000010E3025
:103DD0000806010080800080008080800F300C0386
:103DE0000C300F0000808000808080000020312E89
:103DF0000E312000808080000080808080818E7065
:103E00001806010000808080808080000021302C16
:103E10002221300000000000807C0202000000002F
:103E2000003F404000000000FF00000000000000D4
:103E3000FF0000000002027C800000000040403FC4
:103E4000000000000006010102020404000000005E
:103E50000000000002400000000000A00000000080
:103E600005400000000000C8000000000C400000F9
:103E70000000409C00000000194000000020BCBE73
:103E80000000000034400000BFC91B8E0000000489
:103E9000B5400000504BCFD06607E2CF01000000D4
:103EA0006C4100003E8251AADFEEA7340100000001
:103EB000D9420000DCB5A0E23A301F97FFFFFFFFB8
:103EC000B4450000FD25A0C8E9A3C14FFFFFFFFFD7
:103ED000FF3F00000000008000000000FF3F0000E6
:103EE0000000008000000000243F000800000020C7
:103EF000CC000000C4010008F03F0008CC00002006
:103F00007C160000E00100081C00000043000000D7
:103F1000F8FFFFFF0C0000000E0000000F00000083
:103F20002E00000000000000000000000000000063
:103F300000000000D4AD0000FE0202F2929A9692B8
:103F400092F20202020080601F40201744847C0429
:103F5000041720400000C9F1080889EE980000F815
:103F60008888FF8888F80000020100FF0003001F16
:103F70000808FF08081F0000C6F4000000FC4444C5
:103F8000444546444444447C00004020180700FC5B
:103F900044444444444444FC0000B6AF4044C44458
:103FA0004444401010FF101010F00000103C13109B
:103FB00014B840300E014080403F00000000000077
:103FC00000000000000000000000000000000000F1
:103FD00000000000000000000000000000000000E1
:103FE000000000000102030401020304060708099F
:040000050800018965
:00000001FF
